:020000040800F2
:1000000000000220D9490008294A0008294A0008AE
:10001000294A0008294A0008294A0008000000006F
:10002000000000000000000000000000294A000855
:10003000294A000800000000294A0008294A00084F
:10004000294A0008294A0008294A0008294A0008C4
:10005000294A0008294A0008294A0008294A0008B4
:10006000294A0008294A000875B20008ED910008E5
:10007000294A0008294A0008294A0008699100080D
:10008000ED7D0008294A00085D6D0008294A000836
:10009000294A0008294A0008294A0008D58E000884
:1000A000294A0008294A0008294A0008294A000864
:1000B000294A0008294A0008294A0008294A000854
:1000C000294A0008294A0008294A0008294A000844
:1000D000294A0008ADA10008294A00082971000832
:1000E0007D8F0008294A0008294A0008294A00088B
:1000F000294A0008294A0008294A0008294A000814
:10010000294A0008294A0008A1880008294A00084D
:10011000294A0008294A0008294A0008294A0008F3
:10012000294A0008294A000889A70008294A000826
:10013000C96B00080000000000000000294A000808
:10014000294A0008294A0008294A0008294A0008C3
:1001500045A1000895A60008596F00089D6F00088A
:10016000294A0008294A0008294A0008294A0008A3
:10017000294A0008294A0008000000000000000089
:08018000294A0008294A000881
:1001900010B5054C237833B9044B13B10448AFF3C1
:1001A00000800123237010BD88040020000000009F
:1001B000F813010808B5034B1BB103490348AFF31B
:1001C000008008BD000000008C040020F813010826
:1001D000A3F5803A704700BF174B002B08BF134BA5
:1001E0009D46FFF7F5FF00218B460F461348144A42
:1001F000121A01F0C5F90E4B002B00D098470D4B99
:10020000002B00D098470020002104000D000D486D
:10021000002802D00C48AFF3008001F08DF92000D7
:10022000290004F037FD01F073F900BF0000080059
:100230000000000000000000000000008804002012
:10024000F01900200000000000000000034613F831
:10025000012B002AFBD1181A01387047000000005A
:1002600001F0FF01102A2BDB10F0070F08D010F867
:10027000013B013A8B422DD010F0070F42B3F6D16B
:10028000F0B441EA012141EA014122F007047FF084
:1002900000070023F0E80256083C85EA010586EADB
:1002A000010685FA47F5A3FA87F586FA47F6A5FA17
:1002B00087F68EB9EED1F0BC01F0FF0102F0070223
:1002C00032B110F8013B013A83EA010313B1F8D1CE
:1002D0000020704701387047002D06BF35460338AF
:1002E000073815F0010F07D1013015F4807F02BFE8
:1002F000013015F4C03F0130F0BC0138704700BF39
:1003000010F8012B11F8013B012A28BF9A42F7D0BF
:10031000D01A7047743301080000002088040020C0
:1003200088040020F019002070B54FF0FF0C4CF449
:10033000E06C1CEA11541DBF1CEA135594EA0C0F23
:1003400095EA0C0F00F0DEF82C4481EA030621EA5E
:100350004C5123EA4C5350EA013518BF52EA033599
:1003600041F4801143F4801338D0A0FB02CE4FF04B
:100370000005E1FB02E506F00042E0FB03E54FF07B
:100380000006E1FB03569CF0000F18BF4EF0010E73
:10039000A4F1FF04B6F5007F64F5407404D25FEA6F
:1003A0004E0E6D4146EB060642EAC62141EA555122
:1003B0004FEAC52040EA5E504FEACE2EB4F1FD0C64
:1003C00088BFBCF5E06F1ED8BEF1004F08BF5FEAE2
:1003D000500E50F1000041EB045170BD06F0004694
:1003E00046EA010140EA020081EA0301B4EB5C0441
:1003F000C2BFD4EB0C0541EA045170BD41F4801139
:100400004FF0000E013C00F3AB8014F1360FDEBF5D
:10041000002001F0004170BDC4F10004203C35DA39
:100420000C341BDC04F11404C4F1200500FA05F3BC
:1004300020FA04F001FA05F240EA020001F000425D
:1004400021F0004110EBD37021FA04F642EB0601D3
:100450005EEA430E08BF20EAD37070BDC4F10C04FD
:10046000C4F1200500FA04F320FA05F001FA04F2C1
:1004700040EA020001F0004110EBD37041F10001AD
:100480005EEA430E08BF20EAD37070BDC4F12005B8
:1004900000FA05F24EEA020E20FA04F301FA05F220
:1004A00043EA020321FA04F001F0004121FA04F2C8
:1004B00020EA020000EBD3705EEA430E08BF20EA98
:1004C000D37070BD94F0000F0FD101F000464000D2
:1004D00041EB010111F4801F08BF013CF7D041EA54
:1004E000060195F0000F18BF704703F00046520058
:1004F00043EB030313F4801F08BF013DF7D043EA29
:100500000603704794EA0C0F0CEA135518BF95EADE
:100510000C0F0CD050EA410618BF52EA4306D1D165
:1005200081EA030101F000414FF0000070BD50EA84
:10053000410606BF1046194652EA430619D094EA0E
:100540000C0F02D150EA013613D195EA0C0F05D1F8
:1005500052EA03361CBF104619460AD181EA03014C
:1005600001F0004141F0FE4141F470014FF0000004
:1005700070BD41F0FE4141F4780170BD81F0004151
:1005800002E000BF83F0004330B54FEA41044FEA78
:10059000430594EA050F08BF90EA020F1FBF54EA13
:1005A000000C55EA020C7FEA645C7FEA655C00F0AF
:1005B000E2804FEA5454D4EB5555B8BF6D420CDD80
:1005C0002C4480EA020281EA030382EA000083EA03
:1005D000010180EA020281EA0303362D88BF30BDA3
:1005E00011F0004F4FEA01314FF4801C4CEA1131F9
:1005F00002D0404261EB410113F0004F4FEA033358
:100600004CEA133302D0524263EB430394EA050FE2
:1006100000F0A780A4F10104D5F1200E0DDB02FA51
:100620000EFC22FA05F2801841F1000103FA0EF2E5
:10063000801843FA05F359410EE0A5F120050EF1AB
:10064000200E012A03FA0EFC28BF4CF0020C43FADC
:1006500005F3C01851EBE37101F0004507D54FF0E9
:10066000000EDCF1000C7EEB00006EEB0101B1F539
:10067000801F1BD3B1F5001F0CD349085FEA30007F
:100680004FEA3C0C04F101044FEA445212F5800F8A
:1006900080F09A80BCF1004F08BF5FEA500C50F127
:1006A000000041EB045141EA050130BD5FEA4C0C0A
:1006B000404141EB0101013C28BFB1F5801FE9D267
:1006C00091F0000F04BF01460020B1FA81F308BF8A
:1006D0002033A3F10B03B3F120020CDA0C3208DD56
:1006E00002F1140CC2F10C0201FA0CF021FA02F131
:1006F0000CE002F11402D8BFC2F1200C01FA02F1A1
:1007000020FA0CFCDCBF41EA0C019040E41AA2BFC5
:1007100001EB0451294330BD6FEA04041F3C1CDA8D
:100720000C340EDC04F11404C4F1200220FA04F0AD
:1007300001FA02F340EA030021FA04F345EA030157
:1007400030BDC4F10C04C4F1200220FA02F001FA19
:1007500004F340EA0300294630BD21FA04F029469B
:1007600030BD94F0000F83F4801306BF81F4801134
:100770000134013D4EE77FEA645C18BF7FEA655CA7
:1007800029D094EA050F08BF90EA020F05D054EA79
:10079000000C04BF1946104630BD91EA030F1EBF7E
:1007A0000021002030BD5FEA545C05D14000494182
:1007B00028BF41F0004130BD14F580043CBF01F575
:1007C000801130BD01F0004545F0FE4141F470015B
:1007D0004FF0000030BD7FEA645C1ABF1946104636
:1007E0007FEA655C1CBF0B46024650EA013406BF37
:1007F00052EA033591EA030F41F4002130BD00BFF6
:1008000090F0000F04BF0021704730B54FF48064B2
:1008100004F132044FF000054FF0000150E700BF33
:1008200090F0000F04BF0021704730B54FF4806492
:1008300004F1320410F0004548BF40424FF000017F
:100840003EE700BF42004FEAE2014FEA31014FEAC2
:1008500002701FBF12F07F4393F07F4F81F0605111
:10086000704732F07F4208BF704793F07F4F04BF5C
:1008700041F40021704730B54FF4607401F0004539
:1008800021F000411CE700BF50EA010208BF704799
:1008900030B54FF000050AE050EA010208BF70478A
:1008A00030B511F0004502D5404261EB41014FF4F3
:1008B000806404F132045FEA915C3FF4D8AE4FF0FB
:1008C00003025FEADC0C18BF03325FEADC0C18BFDE
:1008D000033202EBDC02C2F1200300FA03FC20FA2F
:1008E00002F001FA03FE40EA0E0021FA02F114447C
:1008F000BDE600BF70B54FF0FF0C4CF4E06C1CEA95
:1009000011541DBF1CEA135594EA0C0F95EA0C0F05
:1009100000F0DEF82C4481EA030621EA4C5123EA78
:100920004C5350EA013518BF52EA033541F48011A7
:1009300043F4801338D0A0FB02CE4FF00005E1FB5A
:1009400002E506F00042E0FB03E54FF00006E1FBA4
:1009500003569CF0000F18BF4EF0010EA4F1FF04E7
:10096000B6F5007F64F5407404D25FEA4E0E6D4127
:1009700046EB060642EAC62141EA55514FEAC52038
:1009800040EA5E504FEACE2EB4F1FD0C88BFBCF5B4
:10099000E06F1ED8BEF1004F08BF5FEA500E50F165
:1009A000000041EB045170BD06F0004646EA01012B
:1009B00040EA020081EA0301B4EB5C04C2BFD4EB5D
:1009C0000C0541EA045170BD41F480114FF0000E56
:1009D000013C00F3AB8014F1360FDEBF002001F0C4
:1009E000004170BDC4F10004203C35DA0C341BDC3E
:1009F00004F11404C4F1200500FA05F320FA04F010
:100A000001FA05F240EA020001F0004221F0004143
:100A100010EBD37021FA04F642EB06015EEA430EB6
:100A200008BF20EAD37070BDC4F10C04C4F12005E6
:100A300000FA04F320FA05F001FA04F240EA020099
:100A400001F0004110EBD37041F100015EEA430E6A
:100A500008BF20EAD37070BDC4F1200500FA05F28A
:100A60004EEA020E20FA04F301FA05F243EA020309
:100A700021FA04F001F0004121FA04F220EA020018
:100A800000EBD3705EEA430E08BF20EAD37070BD5E
:100A900094F0000F0FD101F00046400041EB01013E
:100AA00011F4801F08BF013CF7D041EA060195F020
:100AB000000F18BF704703F00046520043EB0303DA
:100AC00013F4801F08BF013DF7D043EA06037047C7
:100AD00094EA0C0F0CEA135518BF95EA0C0F0CD0D2
:100AE00050EA410618BF52EA4306D1D181EA030118
:100AF00001F000414FF0000070BD50EA410606BF12
:100B00001046194652EA430619D094EA0C0F02D156
:100B100050EA013613D195EA0C0F05D152EA03369B
:100B20001CBF104619460AD181EA030101F00041B9
:100B300041F0FE4141F470014FF0000070BD41F002
:100B4000FE4141F4780170BD70B54FF0FF0C4CF4DC
:100B5000E06C1CEA11541DBF1CEA135594EA0C0FFB
:100B600095EA0C0F00F0A7F8A4EB050481EA030E48
:100B700052EA03354FEA013100F088804FEA03332F
:100B80004FF0805545EA131343EA12634FEA0222FD
:100B900045EA111545EA10654FEA00260EF00041BE
:100BA0009D4208BF964244F1FD0404F5407402D210
:100BB0005B084FEA3202B61A65EB03055B084FEAA1
:100BC00032024FF480104FF4002CB6EB020E75EB9E
:100BD000030E22BFB61A754640EA0C005B084FEAC6
:100BE0003202B6EB020E75EB030E22BFB61A754643
:100BF00040EA5C005B084FEA3202B6EB020E75EB8E
:100C0000030E22BFB61A754640EA9C005B084FEA05
:100C10003202B6EB020E75EB030E22BFB61A754612
:100C200040EADC0055EA060E18D04FEA051545EA01
:100C300016754FEA06164FEAC30343EA52734FEAAA
:100C4000C2025FEA1C1CC0D111F4801F0BD141EA23
:100C500000014FF000004FF0004CB6E711F4801F88
:100C600004BF01430020B4F1FD0C88BFBCF5E06F68
:100C70003FF6AFAEB5EB030C04BFB6EB020C5FEA78
:100C8000500C50F1000041EB045170BD0EF0004ECD
:100C90004EEA113114EB5C04C2BFD4EB0C0541EAFF
:100CA000045170BD41F480114FF0000E013C90E6FC
:100CB00045EA060E8DE60CEA135594EA0C0F08BFC0
:100CC00095EA0C0F3FF43BAF94EA0C0F0AD150EABF
:100CD00001347FF434AF95EA0C0F7FF425AF104652
:100CE00019462CE795EA0C0F06D152EA03353FF47A
:100CF000FDAE1046194622E750EA410618BF52EAF7
:100D000043067FF4C5AE50EA41047FF40DAF52EACA
:100D100043057FF4EBAE12E74FF0FF3C06E000BF67
:100D20004FF0010C02E000BF4FF0010C4DF804CD74
:100D30004FEA410C7FEA6C5C4FEA430C18BF7FEA34
:100D40006C5C1BD001B050EA410C0CBF52EA430C62
:100D500091EA030F02BF90EA020F0020704710F1E2
:100D6000000F91EA030F58BF994208BF90422CBF71
:100D7000D8176FEAE37040F0010070474FEA410C6A
:100D80007FEA6C5C02D150EA013C07D14FEA430C88
:100D90007FEA6C5CD6D152EA033CD3D05DF8040BF9
:100DA000704700BF8446104662468C46194663462B
:100DB00000E000BF01B5FFF7B7FF002848BF10F102
:100DC000000F01BD4DF808EDFFF7F4FF0CBF012047
:100DD00000205DF808FB00BF4DF808EDFFF7EAFFC3
:100DE00034BF012000205DF808FB00BF4DF808ED7E
:100DF000FFF7E0FF94BF012000205DF808FB00BF73
:100E00004DF808EDFFF7CEFF94BF012000205DF8FC
:100E100008FB00BF4DF808EDFFF7C4FF34BF012009
:100E200000205DF808FB00BF4FEA410C7FEA6C5CD4
:100E300002D150EA013C0AD14FEA430C7FEA6C5CD4
:100E400002D152EA033C02D14FF0000070474FF04C
:100E5000010070474FEA410212F5001215D211D578
:100E60006FF47873B3EB625212D94FEAC12343F0A7
:100E7000004343EA505311F0004F23FA02F018BF29
:100E8000404270474FF00000704750EA013005D1F2
:100E900011F0004008BF6FF0004070474FF00000B5
:100EA000704700BF4FEA4102B2F1E04324BFB3F5FF
:100EB000001CDCF1FE5C0DD901F0004C4FEAC002D1
:100EC0004CEA5070B2F1004F40EB830008BF20F0B5
:100ED0000100704711F0804F21D113F13872BCBF6F
:100EE00001F00040704741F480114FEA5252C2F1C4
:100EF0001802C2F1200C10FA0CF320FA02F018BF0D
:100F000040F001004FEAC1234FEAD32303FA0CFC5F
:100F100040EA0C0023FA02F34FEA4303CCE77FEAEE
:100F2000625307D150EA01331EBF4FF0FE4040F438
:100F30004000704701F0004040F0FE4040F40000E7
:100F4000704700BF80F0004002E000BF81F0004128
:100F500042001FBF5FEA410392EA030F7FEA226C5F
:100F60007FEA236C6AD04FEA1262D2EB1363C1BFEF
:100F7000D218414048404140B8BF5B42192B88BF5E
:100F8000704710F0004F40F4000020F07F4018BF81
:100F9000404211F0004F41F4000121F07F4118BFA1
:100FA000494292EA030F3FD0A2F1010241FA03FC49
:100FB00010EB0C00C3F1200301FA03F100F0004331
:100FC00002D5494260EB4000B0F5000F13D3B0F1F9
:100FD000807F06D340084FEA310102F10102FE2A68
:100FE00051D2B1F1004F40EBC25008BF20F00100D8
:100FF00040EA03007047490040EB0000013A28BF77
:10100000B0F5000FEDD2B0FA80FCACF1080CB2EBF9
:101010000C0200FA0CF0AABF00EBC2505242184377
:10102000BCBFD0401843704792F0000F81F400011C
:1010300006BF80F400000132013BB5E74FEA4103EF
:101040007FEA226C18BF7FEA236C21D092EA030F5B
:1010500004D092F0000F08BF0846704790EA010FD5
:101060001CBF0020704712F07F4F04D1400028BF02
:1010700040F00040704712F100723CBF00F50000E4
:10108000704700F0004343F0FE4040F4000070471A
:101090007FEA226216BF08467FEA236301464202C6
:1010A00006BF5FEA412390EA010F40F480007047D9
:1010B0004FF0000304E000BF10F0004348BF40427F
:1010C0005FEA000C08BF704743F0964301464FF0BB
:1010D00000001CE050EA010208BF70474FF0000317
:1010E0000AE000BF50EA010208BF704711F0004358
:1010F00002D5404261EB41015FEA010C02BF844628
:101100000146002043F0B64308BFA3F18053A3F586
:101110000003BCFA8CF2083AA3EBC25310DB01FACD
:1011200002FC634400FA02FCC2F12002BCF1004F51
:1011300020FA02F243EB020008BF20F001007047E2
:1011400002F1200201FA02FCC2F1200250EA4C0036
:1011500021FA02F243EB020008BF20EADC7070477C
:1011600053B94AB9002908BF00281CBF4FF0FF310E
:101170004FF0FF3000F0AAB9ADF1080C6DE904CED4
:1011800000F03CF8DDF804E0DDE9022304B070472C
:1011900038B50022002304460D46FFF71DFE28B98E
:1011A00020462946BDE8384000F00AB8204605F13F
:1011B000004100F005F8404261EB410138BD00BF3D
:1011C000D0B50C4B002206460F46FFF793FB00F00C
:1011D0007FF90446FFF714FB074B0022FFF78AFB59
:1011E00002460B4630463946FFF7CCF900F070F95D
:1011F0002146D0BD0000F03D0000F0412DE9F04750
:10120000089D04468E46002B4DD18A42944669D9EA
:10121000B2FA82F252B101FA02F3C2F1200120FACD
:1012200001F10CFA02FC41EA030E94404FEA1C481B
:10123000210CBEFBF8F61FFA8CF708FB16E341EA17
:10124000034306FB07F199420AD91CEB030306F19D
:10125000FF3080F01F81994240F21C81023E6344BE
:101260005B1AA4B2B3FBF8F008FB103344EA034462
:1012700000FB07F7A7420AD91CEB040400F1FF3377
:1012800080F00A81A74240F207816444023840EAB4
:101290000640E41B00261DB1D4400023C5E90043ED
:1012A0003146BDE8F0878B4209D9002D00F0EF8070
:1012B0000026C5E9000130463146BDE8F087B3FAA3
:1012C00083F6002E4AD18B4202D3824200F2F9808B
:1012D000841A61EB030301209E46002DE0D0C5E98E
:1012E000004EDDE702B9FFDEB2FA82F2002A40F0DA
:1012F0009280A1EB0C014FEA1C471FFA8CFE0126DD
:10130000200CB1FBF7F307FB131140EA01410EFB80
:1013100003F0884208D91CEB010103F1FF3802D227
:10132000884200F2CB804346091AA4B2B1FBF7F021
:1013300007FB101144EA01440EFB00FEA64508D944
:101340001CEB040400F1FF3102D2A64500F2BB8081
:101350000846A4EB0E0440EA03409CE7C6F12007D0
:10136000B34022FA07FC4CEA030C20FA07F401FA16
:1013700006F31C43F9404FEA1C4900FA06F3B1FB9F
:10138000F9F8200C1FFA8CFE09FB181140EA014104
:1013900008FB0EF0884202FA06F20BD91CEB0101A1
:1013A00008F1FF3A80F08880884240F28580A8F1F9
:1013B00002086144091AA4B2B1FBF9F009FB10114B
:1013C00044EA014100FB0EFE8E4508D91CEB0101E9
:1013D00000F1FF346CD28E456AD90238614440EA8C
:1013E0000840A0FB0294A1EB0E01A142C846A6460C
:1013F00056D353D05DB1B3EB080261EB0E0101FA95
:1014000007F722FA06F3F1401F43C5E900710026F1
:101410003146BDE8F087C2F12003D8400CFA02FC47
:1014200021FA03F3914001434FEA1C471FFA8CFE57
:10143000B3FBF7F007FB10360B0C43EA064300FB47
:101440000EF69E4204FA02F408D91CEB030300F1E5
:10145000FF382FD29E422DD9023863449B1B89B29C
:10146000B3FBF7F607FB163341EA034106FB0EF325
:101470008B4208D91CEB010106F1FF3816D28B42D2
:1014800014D9023E6144C91A46EA004638E72E469E
:10149000284605E70646E3E61846F8E64B45A9D296
:1014A000B9EB020864EB0C0E0138A3E74646EAE705
:1014B000204694E74046D1E7D0467BE7023B6144B3
:1014C00032E7304609E76444023842E7704700BF1C
:1014D0004A0011D212F5001211D20DD56FF47873B3
:1014E000B3EB62520ED44FEAC12343F0004343EA08
:1014F000505323FA02F070474FF00000704750EA53
:10150000013002D14FF0FF3070474FF000007047BC
:1015100008B5074B044613B10021AFF30080054B1B
:101520001868836A03B19847204603F053FA00BF56
:10153000000000003C15010870B50D4D0D4C641BFA
:10154000A4100026A64209D10B4D0C4C0FF056FFFB
:10155000641BA4100026A64205D170BD55F8043BBB
:1015600098470136EEE755F8043B98470136F2E715
:101570006C3301086C3301086C33010870330108C7
:1015800002440346934200D1704703F8011BF9E778
:101590002DE9FF4755EC104B002D0E4619462B4602
:1015A000BBBF05F100431D4600232D230B700D9B8F
:1015B000DDF830A0914623F02008BCBF2246144637
:1015C000B8F1460F05D0B8F1450F00D10136022120
:1015D00000E0032103AB019302AB009345EC104BF9
:1015E0005346324600F0CCFCB8F1470F074602D113
:1015F00019F0010F22D0B8F1460F07EB060910D100
:101600003B78302B0AD10022002320462946FFF7E1
:10161000D9FB18B9C6F10106CAF80060DAF8003043
:1016200099440022002320462946FFF7CBFB08B14E
:10163000CDF80C903022039B4B4507D3039B0E9AA9
:10164000DB1B3846136004B0BDE8F087591C0391DA
:101650001A70F0E7F7B503460029B8BF494203F80E
:10166000022BB4BF2D222B22092942702ADD0DF155
:101670000704A4460A27A6460A4691FBF7F607FB8D
:1016800016153035632A04F1FF340EF8015C31463B
:10169000F1DC3031AEF1020504F8011C441C29468E
:1016A00061450AD30DF10902A2EB0E02654588BF20
:1016B00000221344181A03B0F0BD11F8012B04F8EE
:1016C000012FEDE7302330318370C170031DF1E746
:1016D0002DE9F04F2DED028B8DB00C46DDF86080CA
:1016E00016461F46054601F03BFAD0F800A05046CA
:1016F000FEF7ACFD00230A9323680593D8F8003069
:1017000094F818B0073323F0070303F10802C8F870
:101710000020D3E90023C4E91223D4E9128929F077
:1017200000430793CDF8188008EE100A9F4BDDE9BF
:1017300006014FF0FF32FFF777FB88BBDDE90601BA
:101740009A4B4FF0FF32FFF751FB48BB00220023BA
:1017500040464946FFF740FB10B12D2384F8433043
:10176000934B9448BBF1470F94BF984680460323A0
:101770002361059B23F0040222604FF000090097CB
:1017800033460BAA2146284600F0D8F9013040F034
:1017900090804FF0FF300DB0BDEC028BBDE8F08FB4
:1017A00042464B4640464946FFF73EFB40B14B465A
:1017B000002BBCBF2D2384F843307F487F4BD1E7FB
:1017C00063680BF0DF0206925A1C3FD10623636068
:1017D000059B616843F48062002303930AABCDE963
:1017E00001B309AB49EC108B009322600DF1230388
:1017F0002846FFF7CDFE069B0999472B804608D166
:10180000C81C02DB6368994241DDABF1020B5FFA51
:101810008BFBBBF1650F20D801395A4604F150000B
:101820000991FFF717FF0A9A1318012A81462361CD
:1018300002DC2268D20701D5013323619DF82330F1
:10184000002B9CD02D2384F8433098E7069A472A32
:10185000BED1002BBCD10123B9E7BBF1660F18D173
:10186000002963680BDD216113B92268D00702D516
:1018700001330B442361A1654FF00009DEE713B982
:101880002268D20701D50233F4E70123F2E74FF0D3
:10189000670B0A9B994205DB23682161D807EAD5CB
:1018A0004B1CE7E70029D4BFC1F102020122134417
:1018B000E0E723685A0507D42369424631462846A3
:1018C000B84701302CD164E7BBF1650F40F2E080EE
:1018D000D4E9120100220023FFF774FA002834D063
:1018E000374A012331462846B84701303FF451AF0B
:1018F000DDE909239A4202DB2368D80710D518EEE8
:10190000103A524631462846B84701303FF441AFBD
:101910004FF0000804F11A090A9B013B434509DC1A
:1019200023689B0700F10581E0680B9B9842B8BFD4
:10193000184630E701234A4631462846B847013069
:101940003FF427AF08F10108E6E7099B002B39DCDB
:101950001B4A012331462846B84701303FF419AFEE
:10196000DDE90923134302D12368D907D8D518EE3E
:10197000103A524631462846B84701303FF409AF85
:101980004FF0000904F11A0A099B5B424B4501DC48
:101990000A9B92E70123524631462846B847013058
:1019A0003FF4F7AE09F10109EEE700BFFFFFEF7F5B
:1019B00040150108441501084C1501084815010897
:1019C000501501080A9AA36D9A42A8BF1A46002A28
:1019D000914637DC4FF0000B29EAE97904F11A024D
:1019E000A36D0593A3EB09035B4533DCDDE9092314
:1019F0009A423BDB2368DA0738D40A9B059A099997
:101A00009A1AA3EB01099145A8BF9146B9F1000FBD
:101A100035DC4FF0000829EAE97904F11A0ADDE91A
:101A200009239B1AA3EB090343457FF779AF0123F1
:101A3000524631462846B84701303FF4AAAE08F175
:101A40000108ECE71346314642462846B8470130C4
:101A5000C0D19EE60123314628460592B8470130A1
:101A60003FF497AE059A0BF1010BB9E718EE103A67
:101A7000524631462846B8470130BED189E6059A1C
:101A80004B46424431462846B8470130C1D180E632
:101A90000A9A012A01DCDB0738D501234246314688
:101AA0002846B84701303FF474AE18EE103A52465B
:101AB00031462846B84701303FF46BAED4E91201F5
:101AC00000220023FFF77EF9D8B90A9B08F1010232
:101AD000013B31462846B84701300ED159E6012373
:101AE000524631462846B84701303FF452AE08F11D
:101AF00001080A9B013B4345F1DC4B4604F15002CF
:101B0000DCE64FF0000804F11A0AF2E7012342462E
:101B1000DFE701234A4631462846B84701303FF403
:101B200038AE08F10108E3680B995B1A4345F0DC15
:101B3000FAE64FF0000804F11909F4E72DE9F0473F
:101B4000164699468A680B69DDF820809342B8BF33
:101B50001346336091F8432007460C460AB101331F
:101B600033602368990642BF3368023333602568C7
:101B700015F0060506D104F1190AE36832689B1ACC
:101B8000AB4226DC94F84320131E226818BF0123C1
:101B900092062BD404F1430249463846C04701302F
:101BA0001ED02368E568326803F00603042B08BFE3
:101BB000AD1AA36822690CBF25EAE575002593429A
:101BC000C4BF9B1AED1800261A34B5421AD1002062
:101BD00008E00123524649463846C047013003D148
:101BE0004FF0FF30BDE8F0870135C6E7E1185A1C19
:101BF000302081F84300224494F8451082F84310C5
:101C00000233C7E70123224649463846C047013020
:101C1000E6D00136D9E700002DE9FF470F7E0C9D85
:101C2000782F914680460C469A4601F1430207D828
:101C3000622F0AD8002F00F0D880582F00F0A38020
:101C400004F1420584F842703AE0A7F16303152BD2
:101C5000F6D801A151F823F0B11C0008C51C0008FA
:101C6000411C0008411C0008411C0008411C0008E0
:101C7000C51C0008411C0008411C0008411C00084C
:101C8000411C0008D11D0008F51C0008B31D000808
:101C9000411C0008411C0008F31D0008411C0008FD
:101CA000F51C0008411C0008411C0008BB1D000871
:101CB0002B681A1D1B682A6004F1420584F8423023
:101CC0000123A3E020682968060601F104030AD570
:101CD0000E682B60002E03DA2D23764284F8433001
:101CE0005E480A2319E00E682B6010F0400F18BF01
:101CF00036B2EFE72B682068191D2960010601D56F
:101D00001E6802E04606FBD51E8854486F2F0CBFA4
:101D100008230A23002184F843106568A560002D7C
:101D2000A2BF216821F0040121600EB9002D4DD021
:101D30001546B6FBF3F103FB1167C75D05F8017D9E
:101D40003746BB420E46F4D9082B0BD12368DE0779
:101D500008D5236961689942DEBF302305F8013C4C
:101D600005F1FF35521B2261CDF800A04B4603AAB6
:101D700021464046FFF7E2FE01304CD14FF0FF30E4
:101D800004B0BDE8F087354881F8457029682368BC
:101D900051F8046B29601D0614D5DF0744BF43F0DA
:101DA000200323601EB9236823F02003236010233F
:101DB000B0E7236843F0200323607823284884F8A1
:101DC0004530E3E7590648BFB6B2E6E71546BBE73C
:101DD0002B6826686169181D286035061B6801D5C7
:101DE000196002E07006FBD51980002323611546B7
:101DF000BAE72B681A1D2A601D6862680021284610
:101E0000FEF72EFA08B1401B60606368236100236F
:101E100084F84330A8E723692A4649464046D0471C
:101E20000130ABD023689B0713D4E068039B984232
:101E3000B8BF1846A4E70123324649464046D0477A
:101E400001309BD00135E36803995B1AAB42F2DCA9
:101E5000EBE7002504F11906F5E700BF521501086C
:101E6000631501082DE9F74F03690C69A342074682
:101E7000C0F28180013C01F1140800F1140505EB6A
:101E80008403019358F8243055F8242001339A42F2
:101E90004FEA840B08EB8409B2FBF3F631D34FF021
:101EA000000E4046AC46F24650F8042B93B206FBB7
:101EB00003E34FEA134E9BB2AAEB0303DCF800A046
:101EC000120C13FA8AF306FB02E20093009B4FEA1E
:101ED000124E92B2C2EB1A4202EB2342BDF800301E
:101EE000814543EA02434CF8043B4FEA224ADBD2E5
:101EF00055F80B302BB9019B043B9D421A462ED35B
:101F00003C61384601F01EF9002824DB01362846E2
:101F10004FF0000C58F8042BD0F800E093B2ACEB73
:101F20000303120C13FA8EF3C2EB1E4202EB2342A0
:101F30009BB243EA0243C14540F8043B4FEA224CBE
:101F4000E8D255F8242005EB840322B9043B9D42D6
:101F50001A460AD33C61304603B0BDE8F08F1268E0
:101F6000043B002ACCD1013CC7E71268043B002A9D
:101F7000F0D1013CEBE70020EEE70000000000009C
:101F80002DE9F04F2DED048B57EC106B93B0456AA3
:101F9000DDF88080069110EE10AA044609920C9399
:101FA000BB4675B9102000F0E3FD0246606220B91F
:101FB000A74BEA21A74801F0DFFBC0E90155056006
:101FC000C560636A196851B15A684A600123934039
:101FD0008B60204600F02AFE636A00221A603B1ED6
:101FE000AABF002323F0004BC8F800309A4BBCBFB7
:101FF0000122C8F8002033EA0B031BD10C9A42F2ED
:102000000F731360CBF31303334300F09285219BCE
:1020100063B9924B22E0924B01930833219A1360EB
:10202000019813B0BDEC048BBDE8F08F8B4B01938E
:102030000333F3E70022002350465946FEF7C2FE61
:102040004BEC19AB804658B10C9A01231360219BCD
:10205000002B00F06B8583481860431E0193DFE777
:102060004BEC10AB10AA11A9204601F08DF9CBF36F
:102070000A5508EE100A002D00F0848019EE903AFF
:10208000C3F3130343F07F57564647F44017A5F2B6
:10209000FF35CDF83880744B002230463946FEF7C4
:1020A00071FA65A3D3E90023FEF724FC64A3D3E906
:1020B0000023FEF769FA064628460F46FEF7B0FBF6
:1020C00061A3D3E90023FEF715FC02460B46304618
:1020D0003946FEF759FA06460F46FEF7BBFE0022C8
:1020E0000090002330463946FEF776FE50B1009846
:1020F000FEF796FB32463B46FEF764FE10B9009BA6
:10210000013B0093009B162B5AD8009A574B03EBC8
:10211000C203D3E9002351EC190BFEF75DFE002842
:1021200050D0009B013B009300230B93109B5D1B41
:102130006B1E059345BFC5F10103049300230023E3
:102140004CBF05930493009B002B3DDB059B009A3D
:102150000A921344059300230793069B092B00F270
:102160008980052BC4BF043B0693069BA3F10203A1
:10217000CCBF00250125032B00F28780DFE803F0A8
:102180002D3A3859DDE910531D4405F23243202B16
:10219000C1BFC3F1400305F212400BFA03F326FA64
:1021A00000F0DABFC3F1200306FA03F01843FEF78C
:1021B00027FB01230646A1F1F877013D0E936AE75C
:1021C0000123B2E70B90B1E7049B009A9B1A04939A
:1021D0005342079300230A93BFE700230893099B08
:1021E000002B55DC0123CDE902331A4609920CE09D
:1021F0000123F3E70023099A0893009B13440293F9
:102200000133012B0393B8BF0123606A00224260AF
:10221000042202F114069E4241683DD9204600F096
:10222000C5FC019000283BD1114B02464FF4D571FB
:10223000C0E60123DFE700BF61436F63A787D23F9A
:10224000B3C8608B288AC63FFB799F501344D33FA5
:1022500081150108981501080000F07F7D1501081F
:1022600074150108511501080000F83FD016010847
:102270001616010801250023069308954FF0FF3339
:10228000CDE9023300221223B0E701230893F5E7DA
:10229000099BCDE90233B8E7013141605200B8E74C
:1022A000636A019A1A60039B0E2B00F29D80002D39
:1022B00000F09A80009B002B32DDB74A03F00F0339
:1022C00002EBC303D3E90089009BD8054FEA23172B
:1022D00016D5B24B51EC190BD3E90823FEF734FCA9
:1022E00007F00F0782468B460325AC4E57B942468E
:1022F0004B4650465946FEF727FC82468B4628E05F
:102300000225F2E7F90708D540464946D6E90023F9
:10231000FEF7F0FA0135804689467F100836E5E77A
:1023200000F09B80009B9D4F5E429B4B06F00F028E
:1023300003EBC203D3E9002351EC190BFEF7DAFAE1
:10234000361182468B4600230225002E7AD1002BBF
:10235000D3D10B9B002B00F08280914B0022504682
:102360005946FEF739FD002879D0039B002B76D023
:10237000029B002B36DD009B504659465F1E002213
:10238000884BFEF7B7FA029E82468B4601352846F7
:10239000FEF746FA52465B46FEF7ACFA824B002245
:1023A000FEF7F2F8D046D9468246A1F1507B002EC6
:1023B00058D17E4B002240464946FEF7E3F852468C
:1023C0005B4680468946FEF725FD002840F0958251
:1023D00052460BF1004340464946FEF7FDFC0028FB
:1023E00040F089825BEC19AB119B002BC0F2488155
:1023F000009A0E2A00F34481674B03EBC203D3E932
:102400000089099B002B80F2D580039B002B00F3F1
:10241000D18040F06F82654B002240464946FEF76E
:1024200069FA52465B46FEF7EBFC039E37460028EE
:1024300040F04582019D312305F8013B009B0133AB
:10244000009340E2F20705D5D7E90023FEF752FAE0
:10245000013501237610083777E7022579E7009FD9
:10246000039E94E701994C4B31440D91089903EB7D
:10247000C60353E90223002943D04D490020FEF74B
:1024800063FB52465B46FEF77DF8019D82468B4614
:1024900049464046FEF7DEFC0646FEF7C1F9024615
:1024A0000B4640464946FEF76DF8303605F8016B9D
:1024B00052465B4680468946FEF78EFC002863D173
:1024C00042464B4636490020FEF75CF852465B46D2
:1024D000FEF782FC002840F0B5800D9B9D4281D024
:1024E000304B002250465946FEF704FA2D4B8246E7
:1024F0008B46404649460022FEF7FCF98046894655
:10250000C6E750465946FEF7F5F90D9B019D0F931E
:1025100082468B4649464046FEF79CFC0646FEF73F
:102520007FF9303602460B4640464946FEF72AF808
:1025300005F8016B0D9B9D42804689464FF00002D5
:1025400024D11B4B50465946FEF71EF802460B4657
:1025500040464946FEF75EFC002873D152465B4672
:1025600013490020FEF70EF802460B464046494646
:10257000FEF732FC00283FF435AF0F9D6B1E0F9322
:1025800015F8013C302BF8D0009749E0054BFEF7D9
:10259000B1F980468946BDE7D0160108A8160108A2
:1025A0000000F03F0000244000001C4000001440E8
:1025B0000000E03F019D56465F4642464B4630468E
:1025C0003946FEF7C1FAFEF745FC8246FEF728F9C8
:1025D00042464B46FEF78EF902460B4630463946D8
:1025E0000AF13006FDF7CEFF05F8016B019E039F4F
:1025F000AE1BB74202460B4635D1FDF7C5FF42463A
:102600004B4606460F46FEF705FCD0B942464B4600
:1026100030463946FEF7D6FB10B11AF0010F10D143
:10262000204618EE101A00F001FB002300982B70D2
:102630000C9B01301860219B002B3FF4F1AC1D6016
:10264000EEE4009F2B461D4613F8012D392A06D1D2
:10265000019A9A42F7D10199302201370A701A780B
:1026600001321A7090E7A64B0022FEF743F90022D0
:10267000002306460F46FEF7A5FB00289DD0CFE7B6
:10268000089A002A00F0D780069A012A00F3BA803F
:102690000E9A002A00F0B28003F23343079E049D95
:1026A000049A1A440492059A01211A44204605927C
:1026B00000F0BEFB0746002D0CDD059B002B09DD5D
:1026C000AB42049AA8BF2B46D21A0492059AED1A7F
:1026D000D31A0593079B1BB3089B002B00F0AF8018
:1026E000002E13DD39463246204600F061FC18EE1C
:1026F000102A01460746204600F0B0FB18EE101ADB
:102700008046204600F092FA08EE108A079B9A1B3A
:1027100006D018EE101A204600F04AFC08EE100A07
:102720000121204600F084FB0A9B002B064640F363
:1027300088801A460146204600F03AFC069B012B91
:10274000064640F381804FF00008336906EB8303AF
:10275000186900F01DFBC0F12000059B184410F023
:102760001F0000F09280C0F12003042B40F38A8008
:10277000C0F11C00049B03440493059B03440544DF
:102780000593049B002B07DD18EE101A1A4620460D
:1027900000F068FC08EE100A059B002B05DD3146B1
:1027A0001A46204600F05EFC06460B9B002B6ED0BE
:1027B00018EE100A314600F0C5FC002867DA009BCD
:1027C000013B18EE101A00930A220023204600F065
:1027D0004FFA089B08EE100A002B00F0B18100238D
:1027E00039460A22204600F043FA029B002B074696
:1027F00000F38E80069B022B51DC89E0109BC3F115
:1028000036034BE7039B5E1E079BB342BFBF079B8C
:102810000796F21A0A9BB6BF9B189E1B0A93039B4E
:10282000B8BF0026002BB7BFDDE90323DDE9033580
:102830009D1A002334E7079E049D089F3BE7079AF3
:1028400067E7069B012B18DCBAF1000F15D1CBF31B
:10285000130393B92BF000431B0D1B0583B1049B9D
:1028600001330493059B013305934FF001080A9B44
:10287000002B7FF46AAF01206FE74FF00008F6E706
:102880009846F4E73FF47DAF18461C3072E7039B8F
:10289000002B37DC069B022B34DD039B0293029B4B
:1028A0006BB931460522204600F0E2F901460646A2
:1028B00018EE100A00F046FC00283FF7BBAD099B5C
:1028C000019DDB4300934FF000083146204600F0A5
:1028D000ADF9002F3FF4A4AEB8F1000F05D0B84514
:1028E00003D04146204600F0A1F93946204600F0C9
:1028F0009DF995E600263746E1E70097374699E5CA
:1029000000002440089B002B00F0CA80039B029328
:10291000002D05DD39462A46204600F0A3FB074678
:10292000B8F1000F5BD07968204600F03FF905460A
:1029300028B9874B024640F2EA21FFF73BBB3A69D0
:102940000232920007F10C010C3000F021F9012253
:102950002946204600F086FB019B03F10109DDE9D1
:102960000123134405930AF00103B8460493074674
:10297000314618EE100AFFF775FA4146029000F151
:10298000300A18EE100A00F0DDFB3A46039031469B
:10299000204600F0F3FBC26809F1FF3B054602BB8D
:1029A000014618EE100A00F0CDFB024629462046EB
:1029B000079200F03BF9DDE9063243EA0201049B8D
:1029C0000B434D460FD1BAF1390F2AD0039B002B90
:1029D00002DD029B03F1310A8BF800A075E738464F
:1029E000BAE70122E2E7039B002B04DB06990B43C5
:1029F00004990B4322D1002AEEDD18EE101A0122B1
:102A0000204600F02FFB314608EE100A00F09AFB3A
:102A1000002803DCE0D11AF0010FDDD0BAF1390F44
:102A2000D7D139238BF800302B461D46013B15F8D2
:102A3000012C392A71D001321A7046E7002A07DDCD
:102A4000BAF1390FEDD00AF101038BF800303CE701
:102A5000059B09F801AC994547D018EE101A0023E0
:102A60000A22204600F004F9B84508EE100A4FF09B
:102A700000034FF00A024146204606D100F0F8F864
:102A80008046074609F1010972E700F0F1F839467E
:102A9000804600230A22204600F0EAF80746F1E7C4
:102AA000039B0293019D18EE100A3146FFF7DAF9F5
:102AB00000F1300A019B05F801ABEA1A029B934230
:102AC00009DD18EE101A00230A22204600F0D0F883
:102AD00008EE100AE7E7029B002BC8BF1D46019BCA
:102AE000D8BF01251D444FF0000818EE101A01222E
:102AF000204600F0B7FA314608EE100A00F022FB3B
:102B0000002891DC02D11AF0010F8DD12B461D4611
:102B100013F8012D302AFAD0D7E6019A9A4284D1CF
:102B2000009B0133009331231370CEE6094BFFF76E
:102B300095BA219B002B7FF46EAA074BFFF78EBA44
:102B4000029B002BAEDC069B022B3FF7A8AEA9E749
:102B5000161601085015010874150108F030704769
:102B60000048704758010020004870475801002075
:102B7000024B0146186800F07BBD00BF0400002036
:102B8000024B0146186800F007BD00BF040000209A
:102B90000A44914200F1FF3300D1704710B511F89B
:102BA000014B03F8014F9142F9D110BD70B5466A4F
:102BB00004460D4676B91020FFF7DAFF0246606240
:102BC00020B9184B1848662100F0D6FDC0E901660F
:102BD0000660C660666AF36883B1636ADB6853F8AF
:102BE0002500B8B9012101FA05F6721D92002046B0
:102BF00000F0BCFC60B1C0E901560EE021220421C6
:102C0000204600F0B3FC636AF060DB68002BE4D17F
:102C1000002070BD026843F825200023C0E903337B
:102C2000F7E700BF811501082716010870B5466A4D
:102C300005460C4676B91020FFF79AFF02466862F7
:102C400020B9094B09488A2100F096FDC0E90166C8
:102C50000660C6603CB16B6A6268DB6853F822109C
:102C6000216043F8224070BD811501082716010834
:102C70002DE9F0410D6907460C461E4601F1140C82
:102C80000020DCF8003099B202FB01611E0C0B0C35
:102C900002FB063389B2013001EB034185424CF857
:102CA000041B4FEA1346ECDC0EB3A368AB4219DCFD
:102CB000616838460131FFF779FF804628B902463E
:102CC0000C4B0D48B52100F057FD2269023204F18A
:102CD0000C0192000C30FFF75BFF21463846FFF7EE
:102CE000A5FF444604EB850301355E61256120465E
:102CF000BDE8F08116160108271601082DE9F843F2
:102D00000C4615461F4609220833064693FBF2F38C
:102D1000002101229A4209DB3046FFF747FF40B904
:102D20000246194B1948CE2100F026FD5200013110
:102D3000F0E7089B4361092D4FF00103036116DDA5
:102D400004F10909C8462C4418F8013B0146303B00
:102D50000A223046FFF78CFFA045F5D1A5F1080403
:102D60004C442D1B6319BB4204DBBDE8F8830A34D5
:102D70000925F6E714F8013B0146303B0A223046AC
:102D8000FFF776FFEEE700BF1616010827160108C9
:102D9000030C1B04D3B90004102310F07F4F04BFB1
:102DA0000002083310F0704F04BF0001043310F02C
:102DB000404F04BF80000233002805DB10F0804F35
:102DC00003F1010308BF2023184670470023E4E7FE
:102DD000036813F0070201460BD0DA0723D49807E3
:102DE00049BF5B089B0801200B605CBF0B600220A1
:102DF000704798B2A8B91B0C1020DAB20AB9083093
:102E00001B0A1A0704BF1B0904309A0704BF9B085A
:102E10000230DA0703D45B0800F1010005D00B6033
:102E200070471046E9E700207047202070470000F7
:102E300010B50C460121FFF7B9FE024628B9054B33
:102E400005484FF4A07100F097FC01234461036131
:102E500010BD00BF16160108271601082DE9F04F16
:102E600091460A69D9F810309A42B8BF0B460C4611
:102E7000BCBF4C4699462769D9F810A0A368616881
:102E800007EB0A06B34285B0B8BF0131FFF78EFEEB
:102E900030B90246444B454840F25D1100F06CFCED
:102EA00000F1140505EB86082B460022434521D38B
:102EB00004F1140303EB870709F1140303EB8A02FF
:102EC00002923A1B153A22F00302043204F1150172
:102ED0008F4238BF04220192029A03939A420CD87F
:102EE000002E03DD58F8043D002B5AD0066105B0D2
:102EF000BDE8F08F43F8042BD8E7B3F800A0BAF18F
:102F0000000F24D004F1140EA9464FF0000C5EF817
:102F1000042BD9F800101FFA82FB89B20AFB0B11AF
:102F20004FEA124BD9F8002061444FEA124C0AFBD9
:102F30000BC202EB114289B241EA0241774549F8DE
:102F4000041B4FEA124CE2D8019A45F802C0039ADA
:102F5000B2F802900433B9F1000F20D0296804F1CF
:102F6000140CAE464FF0000ABCF800B0BEF80220C8
:102F700009FB0B22924489B241EA0A414EF8041B34
:102F80005CF8042BBEF80010120C09FB021101EBD7
:102F90001A4167454FEA114AE6D8019AA95004350B
:102FA0009AE7013E9CE700BF1616010827160108A4
:102FB0002DE9F843154612F0030206460F4607D0E6
:102FC000254C013A002354F82220FFF751FE074612
:102FD000AD103DD0746A7CB91020FFF7C9FD0246E0
:102FE000706228B91D4B1E484FF4D77100F0C4FB26
:102FF000C0E901440460C460D6F82480D8F80840D1
:103000004CB940F271213046FFF712FF0023C8F897
:103010000800044603604FF00009EB070AD5394663
:1030200022463046FFF71AFF394680463046FFF702
:10303000FDFD47466D100BD0206838B92246214669
:103040003046FFF70BFF2060C0F800900446E4E72D
:103050003846BDE8F88300BFC01701088115010894
:10306000271601082DE9F0470C464968236903EB50
:103070006218A368074691464FEA621A08F10106F2
:10308000B3420BDB3846FFF791FD054648B90246CF
:103090002A4B2B4840F2D91100F06EFB01315B0046
:1030A000EEE7002300F1140100F110021846534529
:1030B00037DB20692AEAEA7A04F1140319F01F09C0
:1030C00001EB8A0103EB80002FD0C9F1200E8A4664
:1030D0004FF0000C1A6802FA09F242EA0C024AF8B0
:1030E000042B53F8042B984222FA0EFCF2D8031B4F
:1030F000153B23F00303043304F11502904238BF5B
:10310000042341F803C0BCF1000F01D008F102060E
:10311000013E38462E612146FFF788FD2846BDE86E
:10312000F08742F8040F0133C1E7043953F8042B48
:1031300041F8042F9842F9D8EAE700BF16160108B3
:103140002716010830B502690C69121B0ED100F177
:103150001403143103EB840001EB840150F8045D87
:1031600051F8044DA54203D005D30122104630BDCD
:103170008342F3D3FAE74FF0FF32F7E72DE9F84F38
:103180000C460646114620469046FFF7DBFF051E1B
:1031900010D129463046FFF709FD30B93A4B0246B7
:1031A00040F23221394800F0E7FA0123C0E9043542
:1031B000BDE8F88FA4BF4346A0463046D8F80410B7
:1031C000A6BF1C4600250125FFF7F0FC20B92E4BB9
:1031D00002464FF41071E5E7D8F810702669C56013
:1031E00004F1140908F1140500F1140E05EB870C25
:1031F00009EB860608F11002F246002159F8043B5B
:1032000052F804BF1FFA83F811FA8BF11B0CA1EBE3
:103210000808C3EB1B4303EB28431FFA88F8191473
:103220004E4548EA03434AF8043BE7D8331B153BB5
:1032300023F0030304331534A64238BF04231D448E
:1032400073449E462E4666450ED30CF10302521B74
:1032500022F00302033DAC4538BF00221A4452F865
:10326000043D7BB10761A3E756F8048B11FA88F29D
:10327000141404EB184492B242EA04424EF8042BB0
:103280002114E0E7013FEAE71616010827160108B6
:1032900082B08DED000B019B12491940A1F15071D4
:1032A000002905DD00220B4643EC102B02B07047CD
:1032B0004942B1F1A07F4FEA21504FF000024FF098
:1032C000000304DA4FF4002141FA00F3ECE7A0F127
:1032D00014011E29DABF4FF0004020FA01F101214C
:1032E0000A46E1E70000F07FF8B5056900F1140730
:1032F00007EB85052E1F55F8044C2046FFF748FDC7
:10330000C0F120030A28DFF87CC00B6014DCC0F198
:103310000B0E24FA0EF1B74241EA0C0334BF55F804
:10332000081C0021153004FA00F021FA0EF140EAE1
:10333000010243EC102BF8BDB7423ABF55F8081C08
:10334000A5F1080600210B3817D0C0F1200C04FAB3
:1033500000F5BE4221FA0CF445EA04058CBF56F88C
:10336000044C002445F07F5301FA00F024FA0CF4D9
:1033700043F4401340EA0402DBE744EA0C030A4644
:10338000D7E700BF0000F03F2DE9F7438946012150
:1033900057EC106B9046FFF709FC044630B9024623
:1033A000254B264840F20A3100F0E6F9C7F30A55EA
:1033B000C7F3130335BB002E019328D0684600964F
:1033C000FFF706FD009900B3019AC0F1200302FA4D
:1033D00003F30B43C24063610192019BA361002B85
:1033E00014BF022201222261D5B1A5F23345054462
:1033F000C9F80050C0F13500C8F80000204603B0FD
:10340000BDE8F08343F48013D5E76161E5E701A8E7
:10341000FFF7DEFC019B6361012222612030E3E7BC
:1034200004EB8203A0F23240C9F800001869FFF7EC
:10343000AFFCC0EB4210DFE71616010827160108A3
:103440002DE9F74F884669468146FFF74DFF01A9F0
:10345000404655EC104BFFF747FFD9F81030D8F82D
:103460001020A3EB020CDDE900329B1A03EB4C1396
:1034700051EC100B002BD6BF0A462A46C3EB033390
:103480008B462F46D4BF02EB035B02EB035720466B
:1034900010EE102A5B463946FDF756FB41EC100B47
:1034A00003B0BDE8F08F00001728D0B5044607DC54
:1034B000094800EBC404D4E9000141EC100BD0BD75
:1034C0000649074F0020002632463B46FDF712FA18
:1034D000013CF9D1F1E700BFD01601080000F03F30
:1034E00000002440013970B549111469013102F11D
:1034F000140300EB810103EB8404051FA3420CD3EA
:10350000A31A113B23F003031132A24288BF002308
:1035100018440023884205D370BD53F8046B45F866
:10352000046FEBE740F8043BF4E700F11402006994
:103530004B11984210B511DB0ADD11F01F0107D0C5
:1035400052F8234024FA01F000FA01F18C420BD129
:1035500002EB8303934203D8002010BD0346F7E734
:1035600053F8041D0029F5D00120F6E737B5A1FB7B
:1035700002244CB91146019200F07AF8019A0546EE
:1035800030B9284603B030BD0C2202600025F8E7B0
:103590002146FDF7F5FFF4E737B5002944D051F88F
:1035A000043C0190002BA1F10404B8BFE41800F022
:1035B0006FF91E4A0198136833B96360146003B051
:1035C000BDE8304000F06AB9A34208D92568611906
:1035D0008B4201BF19685B6849192160EDE71A4603
:1035E0005B680BB1A342FAD911685518A5420BD1FB
:1035F000246821445418A3421160E0D11C685B6820
:10360000536021441160DAE702D90C230360D6E746
:10361000256861198B4204BF19685B68636004BF49
:10362000491921605460CAE703B030BDA4040020EA
:1036300070B50E4E0C463168054611B900F08CF895
:1036400030602146284600F087F8431C0AD0C41C8D
:1036500024F00304A04207D0211A284600F07CF889
:10366000013001D14FF0FF34204670BDA804002086
:103670002DE9F041CD1C25F0030508350C2D38BF90
:103680000C25002D074601DBA94205D90C233B6020
:1036900000263046BDE8F0812E4E00F0F9F8336880
:1036A0001C4634BB29463846FFF7C2FF431C04467C
:1036B0004DD134682646002E40D123683146384625
:1036C00004EB030800F048F880453AD1216803353F
:1036D0006D1A25F0030508350C2D38BF0C25294639
:1036E0003846FFF7A5FF01302BD023682B44236019
:1036F0000EE02268521B1ED40B2A16D96119A34270
:10370000256018BF5960636808BF316062514B6023
:10371000384604F10B0600F0C1F826F00706231D19
:10372000F21AB6D09B1BA350B3E76268A3420CBF4A
:1037300032605A60ECE723466468B2E73446766844
:10374000B9E70C233B60384600F0A8F8A1E72560F4
:10375000DEE700BFA404002038B5064D0023044670
:1037600008462B6001F020F9431C02D12B6803B1FD
:10377000236038BDB00400201FB514461A46094B1B
:103780001B680546D8684CB1074B0091CDE9013460
:1037900006492B4600F020F800F040FB044B1C4685
:1037A000F3E700BF04000020CC170108D917010877
:1037B0000718010808B513460022FFF7DDFF0CB417
:1037C00007B504AB53F8042B019300F0A3F803B042
:1037D0005DF804EB02B070470EB403B5014603ABCD
:1037E000054853F8042B0068019300F093F802B0E9
:1037F0005DF804EB03B070470400002010B51446D8
:103800000AB90B4810BD0B491046FCF779FD00289A
:10381000F7D007492046FCF773FD0028F1D0064990
:103820002046FCF76DFD0028EBD00020EAE700BF42
:10383000081801080A18010807180108014B93F835
:103840002801704768000020024B0A4601461868AC
:10385000FFF7D4BF0400002010B4034CD4F8E440B8
:10386000A4465DF8044B60476800002082B001B9AF
:1038700001A942B14BB113780B601278101E18BF2A
:10388000012002B070471046FBE76FF00100F8E737
:10389000014800F03ABE00BFB9040020014800F022
:1038A0003ABE00BFB90400209368013B002B10B45E
:1038B000936008DA9469A34201DB0A2903D15DF819
:1038C000044B00F0CBB91368581C106019700846FF
:1038D0005DF8044B7047F8B506460F461446D518F8
:1038E000AC4201D1002007E014F8011B3A463046F3
:1038F000FFF7DAFF431CF3D1F8BD38B593681446DF
:10390000002513B95360184638BD00F073FCC4E9B4
:103910000155F9E72DE9F04F0D469DB01446984644
:10392000064618B183690BB900F0CAFB894B9D426A
:103930001BD175686B6ED90705D4AB899A0502D483
:10394000A86D00F0E2FDAB891B0701D52B69EBB92F
:103950002946304600F0F4F9C0B16B6EDC070ED595
:103960004FF0FF301DB0BDE8F08F7B4B9D4201D181
:10397000B568DFE7794B9D4208BFF568DAE7AB89A8
:103980009805EDD4A86D00F0C6FDE9E70023099382
:1039900020238DF82930CDF80C803023DFF8C0814A
:1039A0008DF82A304FF0010923469A4613F8012B6F
:1039B0000AB1252AF9D1BAEB040B0BD05B4622469B
:1039C00029463046FFF787FF013000F0AA80099AA8
:1039D0005A4409929AF80030002B00F0A28000238C
:1039E0004FF0FF32CDE905230AF1010A0493079352
:1039F0008DF853301A935446052214F8011B584889
:103A0000FCF72EFC049AD8B9D10644BF20238DF8C8
:103A10005330130744BF2B238DF853309AF80030EE
:103A20002A2B15D0079A544600204FF00A0C214645
:103A300011F8013B303B092B4ED9B0B1079214E08D
:103A4000A0EB080309FA03F313430493A246D2E759
:103A5000039B191D1B680391002BBBBF5B4242F007
:103A6000020207930793B8BF049223782E2B0CD140
:103A700063782A2B35D1039B1A1D1B680392002BF8
:103A8000B8BF4FF0FF3302340593DFF8E4A021788C
:103A900003225046FCF7E4FB40B14023A0EB0A00B0
:103AA00003FA00F0049B03430134049314F8011B50
:103AB0002C488DF828100622FCF7D2FB00283FD0B6
:103AC000294B1BBB039B073323F0070308330393E6
:103AD000099B3B44099367E70CFB02320C4601202B
:103AE000A5E700230134059319464FF00A0C204640
:103AF00010F8012B303A092A03D9002BC5D00591C3
:103B0000C3E70CFB012104460123F0E703AB00935C
:103B10002A46164B04A93046FDF7DAFD0746781C05
:103B2000D6D16B6ED90705D4AB899A0502D4A86D9E
:103B300000F0F1FCAB895B063FF512AF099811E785
:103B400003AB00932A46094B04A93046FEF764F8FC
:103B5000E4E700BF441901086419010824190108A9
:103B6000121801081C180108D1160008D7380008DF
:103B70001818010813460A46014602480068FFF774
:103B8000C9BE00BF0400002038B50C4609680546D0
:103B900009B1FFF7F9FF21462846BDE83840FFF795
:103BA000FBBC00002C4B1B68834270B5044651D00F
:103BB000436A43B1DB68002B4AD1636A196811B1CB
:103BC0002046FFF7E9FC616911B12046FFF7E4FCEC
:103BD000616A11B12046FFF7DFFCA16B11B12046ED
:103BE000FFF7DAFCE16B11B12046FFF7D5FC216C41
:103BF00011B12046FFF7D0FCE16D11B12046FFF76F
:103C0000CBFCA16D11B12046FFF7C6FC616B11B171
:103C10002046FFF7C1FCA369E3B1A36A2046984799
:103C2000A16CB9B12046BDE87040FFF7ADBF49595E
:103C300041B90435636A802DD968F8D12046FFF771
:103C4000ABFCBAE70E682046FFF7A6FC3146EFE76B
:103C50000025EFE770BD00BF04000020F8B50E4658
:103C60001446054618B183690BB900F029FA214BB7
:103C70009C422BD16C68A369A360A3891A072FD536
:103C800023696BB323692068C01A6369F6B2834263
:103C9000374604DC2146284600F04EF930BBA368C5
:103CA000013BA36023685A1C22601E7063690130C7
:103CB000834204D0A389DB0706D50A2E04D121460E
:103CC000284600F039F988B93846F8BD0A4B9C42BD
:103CD00001D1AC68CFE7094B9C4208BFEC68CAE74A
:103CE0002146284600F02CF80028CBD04FF0FF37B3
:103CF000EAE700BF44190108641901082419010802
:103D0000024B0A4601461868FFF7A8BF04000020CE
:103D100010B4034CD4F8E040A4465DF8044B60476F
:103D20006800002049B1FF2A85BF8A2303600A701A
:103D30004FF0FF3098BF01207047084670470000E1
:103D4000324B70B51D6806460C4625B1AB6913B9F8
:103D5000284600F0B5F92E4B9C420FD16C68A38920
:103D6000B4F90C2019072CD4DD0611D409233360D3
:103D700042F04003A3814FF0FF303EE0254B9C42D0
:103D800001D1AC68EBE7244B9C4208BFEC68E6E746
:103D9000580712D5616B41B104F14403994202D036
:103DA0003046FFF7F9FB00236363A38923F0240364
:103DB000A3810023636023692360A38943F0080380
:103DC000A38123694BB9A38903F42073B3F5007F62
:103DD00003D02146304600F0C5FBA089B4F90C2081
:103DE00010F001030AD00023A36063695B42A36162
:103DF000236943B910F08000BAD170BD810758BF64
:103E00006369A360F4E70020F7E700BF0400002027
:103E100044190108641901082419010808B506208D
:103E200000F0A2FC012000F0D5FD00008A892DE9F8
:103E3000F041054610070C4658D44B68002B05DCB2
:103E40000B6C002B02DC0020BDE8F081E66A002E3E
:103E5000F9D0002312F480522F682B6032D0606DAD
:103E6000A3895A0705D56368C01A636B0BB1236C2D
:103E7000C01A00230246E66A216A2846B047431C5E
:103E8000A38906D129681D292CD82A4ACA40D607F9
:103E900028D500226260D9042269226004D5421C20
:103EA00001D12B6803B96065616B2F600029CAD00E
:103EB00004F14403994202D02846FFF76DFB00202D
:103EC0006063C1E7216A01232846B047411CC7D17E
:103ED0002B68002BC4D01D2B01D0162B01D12F60D5
:103EE000B1E7A38943F04003A381ADE70F69002F39
:103EF000A9D093070E6808BF4B690F6018BF002355
:103F0000A6EB07088B60B8F1000F9CDD216AA66A5A
:103F100043463A462846B047002806DCA38943F0CA
:103F20004003A3814FF0FF308EE70744A8EB000861
:103F3000E9E700BF0100402038B50B6905460C4693
:103F400013B90025284638BD18B183690BB900F0B4
:103F5000B7F8144B9C421BD16C68B4F90C30002BA1
:103F6000EFD0626ED00704D4990502D4A06D00F0A2
:103F7000CCFA28462146FFF759FF636EDA0705465B
:103F8000E0D4A3899B05DDD4A06D00F0C4FAD9E785
:103F9000054B9C4201D1AC68DFE7044B9C4208BF53
:103FA000EC68DAE7441901086419010824190108CA
:103FB000014620B9044B0549186800F082BA044B49
:103FC0001868FFF7B9BF00BF3C150108393F00086A
:103FD00004000020002310B50446C0E90033C0E906
:103FE0000433836081814366C2818361194608225C
:103FF0005C30FDF7C5FA054B6362054BA362054BC8
:10400000E362054B2462236310BD00BFCD47000867
:10401000F34700082B4800084F480008014900F00A
:1040200050BA00BF393F000808B5436EDA0705D41F
:1040300083899B0502D4806D00F067FA002008BDDB
:1040400008B5436EDA0705D483899B0502D4806DD9
:1040500000F061FA002008BD70B568224D1E55437E
:104060000E4605F17401FFF703FB044640B1002141
:10407000C0E900160C30A06005F16802FDF780FA77
:10408000204670BD014B1868FFF7C8BF3C150108FA
:10409000014800F03ABA00BFBA040020014800F01D
:1040A0003ABA00BFBA040020014800F02EBA00BF9F
:1040B000BB040020014800F02EBA00BFBB04002062
:1040C00010B50446FFF7F0FFA3691BB1BDE810402F
:1040D000FFF7F0BFC4E912332365134B134A1B6883
:1040E000A262A34204BF0123A361204600F020F88E
:1040F0006060204600F01CF8A060204600F018F830
:104100000022E06004216068FFF764FFA0680122DC
:104110000921FFF75FFFE06802221221FFF75AFF33
:104120000123A361D2E700BF3C1501081D40000830
:10413000F8B50746FFF7ACFF1E4B1E68B36913B90D
:104140003046FFF7BDFF4836D6E90134013B03D5C1
:1041500033680BB33668F7E7B4F90C50D5B9164B92
:10416000E36004F15800656600F0CBF9FFF796FFB5
:10417000C4E90155C4E904552560A5610822294612
:1041800004F15C00FDF7FCF9C4E90D55C4E91255D2
:104190002046F8BD6834D9E704213846FFF75CFFB4
:1041A000044630600028D5D1FFF778FF0C233B6030
:1041B000EEE700BF3C1501080100FFFF08B5FFF75F
:1041C00067FF034B03491868BDE8084000F05CB97D
:1041D000040000202940000808B5044B0449186871
:1041E00000F052F9BDE80840FFF758BF0400002076
:1041F0004140000893682DE9F74F06460C4690466B
:104200001BB9002003B0BDE8F08F8B89180750D58B
:104210000B69002B4DD0A389D8F8007013F0020968
:104220006CD113F0010300F09C804846CA46CB468F
:10423000BBF1000F00F0038150B95A460A215046E5
:10424000FCF70EF8002800F0FF800130A0EB0A090F
:10425000206821696369D9454A4628BF5A46884281
:1042600040F2F580A5681D44AA4240F3F080514613
:104270002A4600F0B7F923682B44236021463046D4
:10428000FFF75AFE002867D1B9EB050940F0F78027
:1042900021463046FFF750FE00285DD1D8F80820AF
:1042A000AA44ABEB050B551BC8F80850002DBFD135
:1042B000A7E721463046FFF743FD0028ABD04FF07B
:1042C000FF309FE7D7E900B90837B9F1000FF9D0FF
:1042D000D1454B46216AA56A28BF53465A46304607
:1042E000A847002838DDD8F808308344A9EB000936
:1042F000181AC8F808000028E7D182E74FF0000B31
:10430000DFF880A1D946E0E7D7E9009A0837BAF18B
:10431000000FF9D0A3892068A268990563D552459A
:1043200036D813F4906F33D021696569A0EB010B87
:1043300005EB450505EBD5750BF101026D105244F7
:10434000954238BF15465B053DD529463046FFF7F7
:104350008FF948B90C233360A38943F04003A3814C
:10436000ADE799469A46D2E75A4621690190FEF791
:104370000FFCA289019B22F4906242F08002A2818C
:10438000236165615B44A5EB0B0523605246A56084
:10439000524528BF524620680192494600F022F952
:1043A000A368019A9B1AA36023681A4455462260A9
:1043B000D8F80800A944AAEB050A451BC8F808501C
:1043C000002DA4D11DE72A46304600F025F903460A
:1043D0000028D5D121693046FFF7DEF8A38923F004
:1043E0008003A381B6E72369834202D36169514503
:1043F00015D9524528BF52464946154600F0F2F8F5
:10440000A36822685B1B2A44A3602260002BCFD1E3
:1044100021463046FFF790FD0028C9D09CE76FF099
:1044200000439A4538BF5346A56A93FBF1F34A46C9
:104430004B433046216AA847051EB9DC8CE7D7E913
:1044400000AB00200837F3E60BF1010900E79342C7
:1044500008DCA56A216A52463046A847051E3FF788
:1044600013AF79E75146019200F0BCF8019AA368B6
:104470009B1AA360236813442360154604E70120B8
:104480000CE700BF00FCFF7F2DE9F0410F4600F173
:1044900048040026D4E90185B8F1010805D524684F
:1044A000002CF7D13046BDE8F081AB89012B06D94D
:1044B000B5F90E30013302D02846B84706436835B7
:1044C000EAE72DE9F8430646884600F1480400274C
:1044D000D4E90195B9F1010905D52468002CF7D17B
:1044E0003846BDE8F883AB89012B07D9B5F90E3002
:1044F000013303D029463046C04707436835E9E712
:104500007047704770477047704770470120704789
:10451000012070477047704770B50E46B1F90E1014
:10452000002996B014461D4608DAB6F90C30002270
:104530002A601A0610D44FF480630EE06A4600F039
:10454000ADF90028F1DB019A02F47042A2F50053A4
:104550005A425A412A60EEE740230020236016B0F9
:1045600070BD00008B8973B59D0706460C4607D5C4
:1045700004F14703236023610123636102B070BD2E
:1045800001AB6A46FFF7C8FF009905463046FFF7C2
:104590006FF848B9B4F90C309A05EFD423F003034F
:1045A00043F00203A381E3E70D4BB362A3892060CC
:1045B00043F08003A381009B6361019B20615BB199
:1045C000B4F90E10304600F07BF928B1A38923F02E
:1045D000030343F00103A381A0890543A581CDE72F
:1045E0001D400008884210B501EB020402D9844244
:1045F000234607D8431EA14208D011F8012B03F827
:10460000012FF8E7024401468A4200D110BD13F899
:10461000014D02F8014DF7E72DE9F04180461446BF
:104620000E4621B9BDE8F0411146FFF721B82AB97D
:10463000FEF7B2FF25462846BDE8F08100F062F99A
:104640008442074602D8B4EB500F12D821464046A8
:10465000FFF70EF805460028EDD0BC422246314651
:1046600028BF3A46FEF794FA31464046FEF794FFDB
:10467000E1E73546DFE738B5456C044655B980219A
:10468000FEF7F6FF606438B1031F7C3043F8045F27
:104690008342FBD1002038BD4FF0FF30FBE71F29DC
:1046A00070B504460D46164604D9162303604FF034
:1046B000FF3006E0436C2BB1636C53F8250043F8E0
:1046C000256070BDFFF7D7FF0028F5D0EFE71F2961
:1046D00038B504460D4604D9162303604FF0FF3069
:1046E00038BD426C12B152F821304BB9204600F06F
:1046F0006BF82A4601462046BDE8384000F052B823
:10470000012B0AD0591C03D1162303600120E7E7CF
:10471000002442F82540284698470020E0E71F295A
:1047200038B504460D4602D94FF0FF3038BD436C12
:104730002BB1626C52F8253033B90120F6E7FFF750
:104740009AFF0028F5D0EFE7591C08D0012B08D0BC
:104750000024284642F8254098472046E6E70220F4
:10476000E4E70320E2E70000024B01461868FFF788
:10477000AEBF00BF04000020024B0A460146186885
:10478000FFF78DBF04000020014B1868FFF773BFCF
:1047900004000020024B01461868FFF7C0BF00BFAD
:1047A0000400002038B5074D002304460846114692
:1047B0002B6000F0E1F8431C02D12B6803B12360A9
:1047C00038BD00BFB004002000F0C6B810B50C46DC
:1047D000B1F90E1000F09EF80028ABBF636DA389FD
:1047E0001B1823F48053ACBF6365A38110BD002068
:1047F00070472DE9F0411F468B89DB0505460C46C5
:10480000164605D5B1F90E100223002200F068F813
:10481000A389B4F90E1023F48053A38132463B469A
:104820002846BDE8F04100F017B810B50C46B1F9C4
:104830000E1000F055F8431CA38915BF606523F4E2
:10484000805343F48053A38118BFA38110BDB1F9F5
:104850000E1000F013B8000038B5074D04460846A6
:10486000114600222A601A4600F0ACF8431C02D11F
:104870002B6803B1236038BDB004002038B5064D65
:104880000023044608462B6000F056F8431C02D172
:104890002B6803B1236038BDB004002038B5074D44
:1048A00000230446084611462B6000F04DF8431CD7
:1048B00002D12B6803B1236038BD00BFB0040020D3
:1048C00038B5064D0023044608462B6000F04CF82E
:1048D000431C02D12B6803B1236038BDB004002013
:1048E00038B5074D04460846114600222A601A468C
:1048F00000F04AF8431C02D12B6803B1236038BD95
:10490000B004002051F8043C181F002BBCBF0B580A
:10491000C018704738B5074D0446084611460022B6
:104920002A601A4600F038F8431C02D12B6803B104
:10493000236038BDB0040020024B58221A604FF0AB
:10494000FF307047B0040020024B58221A604FF02D
:10495000FF307047B0040020024B58221A604FF01D
:10496000FF307047B0040020024B58221A6000202C
:10497000704700BFB0040020024B58221A604FF06D
:10498000FF307047B0040020024B58221A604FF0ED
:10499000FF307047B0040020024B58221A604FF0DD
:1049A000FF307047B0040020044A05491368002B0B
:1049B00008BF0B461844106018467047C00400201A
:1049C000F0190020024B58221A604FF0FF30704758
:1049D000B0040020FEE700BFDFF834D00D480E49D8
:1049E0000E4A002302E0D458C4500433C4188C4249
:1049F000F9D30B4A0B4C002301E013600432A242AE
:104A0000FBD300F013F8FCF797FD00F043F9704773
:104A100000000220000000208804002074330108F8
:104A200088040020F0190020FEE7000080B500AFE8
:104A3000164BD3F88830154A43F47003C2F8883017
:104A4000134B1B68124A43F001031360104B002202
:104A50009A600F4B1B680E4A23F0847323F4803353
:104A600013600B4B0B4A5A60094B1B68084A23F42E
:104A700080231360064B0022DA6000F08FF8034BAE
:104A80004FF000629A6000BF80BD00BF00ED00E003
:104A9000003802401030002480B487B000AF0023FB
:104AA0003B6100237B610223FB600023BB60022388
:104AB0007B60354B9B6803F00C033B613B69082B23
:104AC00011D03B69082B44D83B69002B03D03B69CC
:104AD000042B04D03DE02D4B2D4A1A603DE02B4BBA
:104AE0002C4A1A6039E0284B5B689B0D03F00103E8
:104AF000BB60254B5B6803F03F037B60BB68002B0A
:104B00000CD0244A7B68B2FBF3F31F4A5268920927
:104B1000C2F3080202FB03F37B610BE01C4A7B68D3
:104B2000B2FBF3F3184A52689209C2F3080202FB7F
:104B300003F37B61144B5B681B0C03F0030301332D
:104B40005B00FB607A69FB68B2FBF3F30F4A13600A
:104B500003E00E4B0E4A1A6000BF0B4B9B681B090B
:104B600003F00F030C4AD35CDBB23B61074B1A68BE
:104B70003B6922FA03F3054A136000BF1C37BD46A8
:104B80005DF8047B704700BF00380240D40100206C
:104B90000024F40040787D01D801002080B483B067
:104BA00000AF00237B6000233B60364B1B68354A17
:104BB00043F480331360334B1B6803F400333B60D2
:104BC0007B6801337B603B68002B03D17B68B3F5C6
:104BD000A04FF0D12B4B1B6803F40033002B02D005
:104BE00001233B6001E000233B603B68012B42D185
:104BF000244B1B6C234A43F080531364224B1B68E5
:104C0000214A43F4404313601E4B1E4A9B68936045
:104C10001C4B9B681B4A43F400439360194B9B68F1
:104C2000184A43F4A0539360164B184A5A60154B28
:104C30001B68144A43F08073136000BF114B1B685C
:104C400003F00073002BF9D0114B40F205721A608B
:104C50000C4B9B680B4A23F003039360094B9B6842
:104C6000084A43F00203936000BF064B9B6803F0C1
:104C70000C03082BF9D100BF0C37BD465DF8047B4F
:104C8000704700BF003802400070004019544007D0
:104C9000003C024080B500AF00F07AF804F094F8D0
:104CA00001F0A4FA4FF47A7003F03CFE06F016FB14
:104CB00006F0D0FE01F0ACFA4FF4FA7003F032FEC9
:104CC000034808F0C7FC024808F00EFDFBE700BFF0
:104CD0001018002080B483B000AF0346FB71FB794D
:104CE00003F01F02074997F907305B09012000FA1A
:104CF00002F241F8232000BF0C37BD465DF8047B6B
:104D0000704700BF00E100E080B483B000AF03460D
:104D1000FB71FB7903F01F02074997F907305B0924
:104D2000012000FA02F2203341F8232000BF0C37A3
:104D3000BD465DF8047B704700E100E080B483B0BD
:104D400000AF03463960FB7197F90730002B0BDA8F
:104D50003B68DAB20C49FB7903F00F03043B120104
:104D6000D2B20B441A7609E03B68DAB2074997F9E8
:104D700007301201D2B20B4483F8002300BF0C3776
:104D8000BD465DF8047B704700ED00E000E100E007
:104D900080B500AF00F028F800F05CF800F0B8F83B
:104DA00000F0C8F800F080F900F076FA00F022FB7D
:104DB00000F012FC05F078FE00F04AFF00F070FFF2
:104DC00000F096FF00F0BCFF00F0DEFF01F006F8F7
:104DD00001F030F801F05EF901F092F901F0F6F916
:104DE00001F082F800BF80BD80B400AF184B9B6813
:104DF000174A23F00303936000BF154B9B6803F031
:104E00000C03002BF9D1124B1B68114A43F4803379
:104E1000136000BF0E4B1B6803F40033002BF9D066
:104E20000B4B9B680A4A43F400439360084B9B6812
:104E3000074A43F4A0539360054B1B6C044A43F0AC
:104E40008053136400BFBD465DF8047B704700BF0C
:104E50000038024080B400AF294B9B6803F00C037C
:104E6000082B0CD1264B9B68254A23F00303936043
:104E700000BF234B9B6803F00C03002BF9D1204BA0
:104E80001B681F4A23F08073136000BF1C4B1B6814
:104E900003F00073002BF9D11A4B1B68194A43F039
:104EA00005031360164B5B68154A43F48003536097
:104EB000134B5B68144A1A401149144B13434B605F
:104EC0000F4B1B680E4A43F08073136000BF0C4BFE
:104ED0001B6803F00073002BF9D0094B9B68084A4C
:104EE00043F00203936000BF054B9B6803F00C0383
:104EF000082BF9D100BF00BFBD465DF8047B7047A9
:104F000000380240003C02400080FCF0042A000708
:104F100080B400AF064BD3F88830054A43F47003E1
:104F2000C2F8883000BFBD465DF8047B704700BF03
:104F300000ED00E080B400AF574B1B6B564A43F0C6
:104F400001031363554B1B68544A23F0300313606D
:104F5000524B1B68514A43F0200313604F4B1B68B0
:104F60004E4A23F0C00313604C4B1B684B4A43F07E
:104F700080031360494B1B68484A23F44073136055
:104F8000464B1B68454A43F480731360434B1B68D0
:104F9000424A23F440631360404B1B683F4A43F48A
:104FA000006313603D4B1B683C4A23F4405313607D
:104FB0003A4B1B68394A43F400531360374B1B6864
:104FC000364A23F440431360344B1B68334A43F49E
:104FD00000431360314B1B68304A23F440331360A5
:104FE0002E4B1B682D4A43F4803313602B4B1B68F8
:104FF0002A4A23F440131360284B1B68274A43F4C2
:1050000000131360254B1B68244A23F440031360EC
:10501000224B1B68214A43F4000313601F4B1B689B
:105020001E4A23F0407313601C4B1B681B4A43F05D
:1050300000731360194B1B6A184A03F0FF1323F423
:1050400070031362154B1A6A1449154B13430B6214
:10505000124B5B6A114A23F47F2323F4706353627B
:105060000E4B5B6A0D4A43F4EE2343F4E063536254
:105070000A4B1B8B9BB2094A43F010039BB213836C
:10508000064B9A680549074B13438B6000BFBD462A
:105090005DF8047B704700BF00380240000002400A
:1050A00000115055F0FFF30380B400AF754B1B6B3C
:1050B000744A43F002031363734B1B68724A23F074
:1050C00003031360704B1B686F4A43F002031360C5
:1050D0006D4B1B686C4A23F00C0313606A4B1B6812
:1050E000694A43F008031360674B1B68664A23F064
:1050F000C0031360644B1B68634A43F040031360B2
:10510000614B1B68604A23F4407313605E4B1B685D
:105110005D4A43F4807313605B4B1B685A4A23F467
:1051200040631360584B1B68574A43F48063136015
:10513000554B1B68544A23F440531360524B1B6871
:10514000514A43F4005313604F4B1B684E4A23F4FB
:10515000404313604C4B1B684B4A43F400431360BD
:10516000494B1B68484A23F440131360464B1B68A5
:10517000454A43F400131360434B1B68424A23F033
:1051800040731360404B1B683F4A43F080731360C9
:105190003D4B1B683C4A23F0406313603A4B1B684D
:1051A000394A43F000631360374B1B68364A23F0DB
:1051B00040531360344B1B68334A43F00053136071
:1051C000314B1B68304A23F0404313602E4B1B6861
:1051D0002D4A43F0004313602B4B1B6A2A4A23F0ED
:1051E0007F4323F0FF031362274B1B6A264A43F0D9
:1051F000884343F022031362234B5A6A2249234B0C
:1052000013404B62204B5A6A1F49214B13434B6298
:105210001D4B1B8B9BB21C4A43F008039BB21383AC
:10522000194B1B8B9BB2184A43F480539BB21383D8
:10523000154BDB68144A23F44053D360124BDB68F0
:10524000114A43F48053D3600F4BDB680E4A23F4BA
:105250004043D3600C4BDB680B4A43F48043D3607C
:10526000094B5B68084A43F0C0035360064B9A68D9
:105270000549084B13438B6000BFBD465DF8047BB6
:10528000704700BF0038024000040240FFF00F00EA
:1052900000075055CF0F30FF80B400AF524B1B6B4F
:1052A000514A43F004031363504B1B684F4A23F0E9
:1052B000030313604D4B1B684C4A43F0010313601A
:1052C0004A4B1B68494A23F00C031360474B1B6889
:1052D000464A43F00C031360444B1B68434A23F4D3
:1052E00040731360414B1B68404A23F440631360D2
:1052F0003E4B1B683D4A23F4405313603B4B1B68F5
:105300003A4A43F400531360384B1B68374A23F47E
:1053100040431360354B1B68344A43F40043136029
:10532000324B1B68314A23F4401313602F4B1B6828
:105330002E4A43F4001313602C4B1B682B4A23F4B2
:1053400040031360294B1B68284A43F40003136091
:10535000264B1B68254A23F040731360234B1B68C0
:10536000224A43F000731360204B1B6A1F4A23F04C
:105370007F4313621D4B1B6A1C4A43F008431362B0
:105380001A4B5B6A194A23F47F2323F47063536238
:10539000164B5B6A154A43F4CC2343F4C063536253
:1053A000124BDB68114A23F44073D3600F4BDB6868
:1053B0000E4A43F40073D3600C4BDB680B4A23F4B2
:1053C0004063D360094BDB68084A43F40063D36051
:1053D000064B9A680549064B13438B6000BFBD46D8
:1053E0005DF8047B704700BF0038024000080240AF
:1053F0000FFFF00380B400AF184B1B6C174A43F04B
:1054000008031364164B1B889BB2154A43F08403B0
:105410009BB21380124B53221A85114B114ADA6248
:105420000F4B9B899BB20E4A43F001039BB29381C1
:105430000B4B9B8A9BB20A4A43F001039BB29382B7
:10544000074B1B889BB2064A43F001039BB21380B3
:1054500000BFBD465DF8047B704700BF00380240C6
:10546000000C00403F420F0080B400AF584B1B6C53
:10547000574A43F0010313644FF080431B889BB2EB
:105480004FF0804243F084039BB213804FF080437F
:105490009B8B9BB24FF0804243F068039BB2938397
:1054A0004FF080439B8B9BB24FF0804243F4D0433C
:1054B0009BB293834FF080431B8C9BB24FF0804292
:1054C00043F480739BB213844FF080431B8C9BB2D8
:1054D0004FF0804243F480539BB213844FF08043DB
:1054E00029221A854FF0804340F62832DA624FF0C5
:1054F00080434FF4FA62DA634FF080434FF4FA626C
:105500001A644FF080439B8A9BB24FF0804243F075
:1055100001039BB293824FF080431B889BB24FF0F4
:10552000804243F001039BB21380294B1B6C284A35
:1055300043F002031364274B1B889BB2254A43F0B8
:1055400084039BB21380234B9B8B9BB2214A43F075
:1055500068039BB293831F4B9B8B9BB21D4A43F402
:10556000D0439BB293831B4B1B8C9BB2194A43F4D1
:1055700080739BB21384174B1B8C9BB2154A43F468
:1055800080539BB21384134B29221A85114B40F68A
:105590002832DA620F4B4FF4FA62DA630D4B4FF4A4
:1055A000FA621A640B4B9B8A9BB20A4A43F00103CE
:1055B0009BB29382074B1B889BB2064A43F00103C0
:1055C0009BB2138000BFBD465DF8047B704700BFEF
:1055D000003802400004004080B400AF344B5B6CE4
:1055E000334A43F001035364324B00221A80314B9B
:1055F0001B889BB22F4A43F084039BB213802D4B30
:105600009B899BB22B4A43F400739BB29381294B35
:105610000A225A63274B03221A85264B0922DA6293
:10562000244B9B8A9BB2234A43F001039BB2938293
:10563000204B1B889BB21F4A43F001039BB213808F
:105640001B4B5B6C1A4A43F0020353641A4B002253
:105650001A80194B1B889BB2174A43F084039BB2F4
:105660001380154B9B899BB2134A43F400739BB282
:105670009381114B0A225A630F4B03221A850E4B5A
:105680000922DA620C4B9B8A9BB20B4A43F001035E
:105690009BB29382084B1B889BB2074A43F00103DD
:1056A0009BB2138000BFBD465DF8047B704700BF0E
:1056B00000380240000001400004014080B400AF07
:1056C000634B1B6C624A43F0010313644FF0804349
:1056D00000221A804FF080431B889BB24FF080421B
:1056E00043F084039BB213804FF080439B8B9BB2AB
:1056F0004FF0804243F068039BB293834FF08043A6
:105700009B8B9BB24FF0804243F4D0439BB2938378
:105710004FF0804307221A854FF080432222DA623D
:105720004FF080439B899BB24FF0804243F4C053BB
:105730009BB293814FF080430A22DA634FF080439B
:105740000A221A644FF080431B8C9BB24FF08042B8
:1057500043F480739BB213844FF080431B8C9BB245
:105760004FF0804243F480539BB213844FF0804348
:105770009B8A9BB24FF0804243F001039BB293821D
:105780004FF080431B889BB24FF0804243F00103EF
:105790009BB213802E4B1B6C2D4A43F00203136403
:1057A0002C4B00221A802B4B1B889BB2294A43F0BA
:1057B00084039BB21380274B9B8B9BB2254A43F0FB
:1057C00068039BB29383234B9B8B9BB2214A43F488
:1057D000D0439BB293831F4B07221A851D4B222275
:1057E000DA621C4B00229A811A4B9B899BB2194AA0
:1057F00043F4C0539BB29381164B0A22DA63154BD4
:105800000A221A64134B1B8C9BB2124A43F4807316
:105810009BB213840F4B1B8C9BB20E4A43F48053F4
:105820009BB213840B4B9B8A9BB20A4A43F0010341
:105830009BB29382074B1B889BB2064A43F001033D
:105840009BB2138000BFBD465DF8047B704700BF6C
:10585000003802400004004080B400AF804B1B6C55
:105860007F4A43F0010313644FF080431B889BB2CF
:105870004FF0804243F084039BB213804FF080438B
:105880009B8B9BB24FF0804243F068039BB29383A3
:105890004FF080439B8B9BB24FF0804243F4D04348
:1058A0009BB293834FF080439B899BB24FF0804221
:1058B00043F400739BB293814FF0804353221A85C7
:1058C0004FF080432222DA624FF0804322229A6313
:1058D0004FF080430022DA634FF0804300221A64C5
:1058E0004FF080431B8C9BB24FF0804243F001038A
:1058F0009BB213844FF080431B8C9BB24FF08042CD
:1059000043F480739BB213844FF080431B8C9BB293
:105910004FF0804243F480539BB213844FF0804396
:10592000B3F848309BB24FF0804243F480739BB28F
:10593000A2F848304FF08043B3F848309BB24FF0A4
:10594000804243F00E039BB2A2F848304FF08043F0
:105950009B8A9BB24FF0804243F001039BB293823B
:105960004FF080431B889BB24FF0804243F001030D
:105970009BB213803A4B1B6C394A43F00203136409
:10598000384B1B889BB2374A43F084039BB2138089
:10599000344B9B8B9BB2334A43F068039BB2938397
:1059A000304B9B8B9BB22F4A43F4D0439BB29383E3
:1059B0002C4B9B899BB22B4A43F400739BB293817F
:1059C000284B53221A85274B2222DA62254B2222AA
:1059D0005A63244B0022DA63224B00221A64214BC3
:1059E0001B8C9BB21F4A43F001039BB213841D4BD7
:1059F0001B8C9BB21B4A43F480739BB21384194BDC
:105A00001B8C9BB2174A43F480539BB21384154BF3
:105A1000B3F848309BB2134A43F480739BB2A2F8A8
:105A20004830104BB3F848309BB20E4A43F00E0397
:105A30009BB2A2F848300B4B9B8A9BB2094A43F0B9
:105A400001039BB29382074B1B889BB2054A43F02C
:105A500001039BB2138000BFBD465DF8047B704715
:105A6000003802400004004080B400AF764B1B6C4D
:105A7000754A43F0010313644FF080431B889BB2C7
:105A80004FF0804243F084039BB213804FF0804379
:105A90009B8B9BB24FF0804243F068039BB2938391
:105AA0004FF080439B8B9BB24FF0804243F4D04336
:105AB0009BB293834FF080431B8C9BB24FF080428C
:105AC00043F400739BB213844FF080431B8C9BB252
:105AD0004FF0804243F400539BB213844FF0804355
